:020000040000FA
:100000000C945D000C9485000C9485000C94850084
:100010000C9485000C9485000C9485000C9485004C
:100020000C9485000C9485000C9485000C94780445
:100030000C9485000C9485000C9485000C9485002C
:100040000C942E040C9485000C9485000C9485006F
:100050000C9485000C9485000C9485000C9485000C
:100060000C9485000C94850000000008000201003B
:100070000003040700000000000000000000000072
:10008000250028002B0000000000240027002A0083
:10009000040404040404040402020202020203032E
:1000A0000303030301020408102040800102040836
:1000B0001020010204081020A30611241FBECFEF58
:1000C000D8E0DEBFCDBF11E0A0E0B1E0E6E4F3E1AF
:1000D00002C005900D92A833B107D9F721E0A8E33B
:1000E000B1E001C01D92AA38B207E1F710E0CDE5FA
:1000F000D0E004C02197FE010E949B09CC35D107B6
:10010000C9F70E9434050C94A1090C94000090E0FA
:10011000FC01EC55FF4F249180579F4FFC018491C7
:10012000882399F090E0880F991FFC01EA57FF4F50
:10013000A591B491FC01E458FF4F859194918FB73C
:10014000F894EC91E22BEC938FBF08958F929F92DD
:10015000AF92BF92FF920F931F93CF93DF93F090D4
:100160006F012BE02F1508F44CC02091710108E5B8
:1001700012E0021B110927FD1395000F111F000F3C
:10018000111F20917001C8E8D0E0C21BD10927FDE2
:10019000D395CC0FDD1FCC0FDD1F4E010D2E000CB3
:1001A000AA08BB089801012E000C440B550B281916
:1001B00039094A095B09DC010E94130724EB30E08E
:1001C00040E050E00E94E906820E931EA41EB51E78
:1001D0008C169D062CF0E801801691060CF4E401C3
:1001E0002297CC0FDD1F2FB7F8948F2D90E0FC01E4
:1001F000EE0FFF1FE80FF91FE55BFE4FD283C183AF
:100200002FBFDF91CF911F910F91FF90BF90AF90C3
:100210009F908F900895AF92BF92CF92DF92EF920E
:10022000FF920F931F93CF93DF936C017B018B01A0
:10023000040F151FEB015E01AE18BF08C017D107F0
:1002400059F06991D601ED91FC910190F081E02D7A
:10025000C6010995892B79F7C501DF91CF911F91CF
:100260000F91FF90EF90DF90CF90BF90AF900895E7
:1002700090E0FC01E859FF4F2491FC01EC55FF4F41
:100280003491FC01E057FF4FE491EE23C9F02223A3
:1002900039F0233001F1A8F4213019F1223029F18D
:1002A000F0E0EE0FFF1FE458FF4FA591B4918FB718
:1002B000F894EC91611126C030953E233C938FBF9A
:1002C00008952730A9F02830C9F0243049F78091EB
:1002D00080008F7D03C0809180008F7780938000A5
:1002E000DFCF84B58F7784BDDBCF84B58F7DFBCF27
:1002F0008091B0008F778093B000D2CF8091B00012
:100300008F7DF9CF3E2BDACF3FB7F89480913F0134
:1003100090914001A0914101B091420126B5A89B66
:1003200005C02F3F19F00196A11DB11D3FBFBA2F87
:10033000A92F982F8827BC01CD01620F711D811D47
:10034000911D42E0660F771F881F991F4A95D1F7CC
:100350000895089590E080E00895FC010190002048
:10036000E9F73197AF01481B590BBC0182E791E0D7
:100370000C940B018F929F92AF92BF920F931F9399
:10038000CF93DF93CDB7DEB7A1970FB6F894DEBF5A
:100390000FBECDBF19A2423008F44AE08E010F5DB6
:1003A0001F4F842E912CB12CA12CA50194010E94E9
:1003B0001B07E62FB901CA01EA30F4F4E05DD80169
:1003C000EE938D01232B242B252B79F790E080E0F1
:1003D000109719F0CD010E94AD01A1960FB6F894C7
:1003E000DEBF0FBECDBFDF91CF911F910F91BF90A8
:1003F000AF909F908F900895E95CE1CFCF93DF930A
:10040000EC0160E08E810E94380161E08E810E94E3
:10041000380160E08E810E9438018BE891E00197FD
:10042000F1F7DF91CF910895CF92DF92EF92FF9293
:100430000F931F93CF93DF936C017C0187E0E80E4D
:10044000F11CD0E0C0E0062F10E0B8010C2E02C075
:10045000759567950A94E2F76170F70181917F01C4
:100460000E9438012196C430D10579F7C601DF9189
:10047000CF911F910F91FF90EF90DF90CF900C9450
:10048000FE01CF92DF92EF92FF920F931F93CF93D3
:10049000DF93EC01F62E642F8C810E9438018D8150
:1004A0008F3F19F060E00E9438010F2D10E08F851A
:1004B00084FF25C06E0187E0C80ED11CF12CE12C11
:1004C000B8010E2C02C0759567950A94E2F7617029
:1004D000F60181916F010E943801FFEFEF1AFF0AC8
:1004E00088E0E816F10461F7CE01DF91CF911F910A
:1004F0000F91FF90EF90DF90CF900C94FE01B80128
:1005000084E0759567958A95E1F7CE010E94140203
:100510006F2DCE01DF91CF911F910F91FF90EF9042
:10052000DF90CF900C94140240E0682F82E791E0B6
:100530000C944102CF93DF93823029F49091810192
:10054000986090938101809385011092860180E4E8
:100550008093870180E18093880180E58093890101
:10056000809176010E948700809177018F3F11F082
:100570000E948700809178010E948700C2E7D1E045
:100580009E01225731408091810184FD0AC084E0A0
:1005900090E02196281739073CF48E810E9487004D
:1005A000EFCF88E090E0F5CF8BE39DE00197F1F786
:1005B00060E0809176010E94380160E080917801CE
:1005C0000E943801809177018F3F19F060E00E940E
:1005D00038018091810184FD39C063E082E791E0B8
:1005E0000E941402CBE4D6E4CE010197F1F763E058
:1005F00082E791E00E9414022197F1F763E082E71D
:1006000091E00E94140283E592E00197F1F762E025
:1006100082E791E00E9414028091810180620E9431
:10062000940284E0809382018CE00E94940281E035
:100630000E9494028BE39FE10197F1F782E080939F
:10064000830186E0DF91CF910C94940280620E9436
:1006500094028BE496E40197F1F780918101806226
:100660000E94940283E592E00197F1F78091810165
:1006700080620E949402D0CF90918501891710F07A
:100680008FEF890FE82FF0E0EE58FE4F84898068E5
:100690000C94940241E00E94410281E090E00895B0
:1006A0004F925F926F927F928F929F92AF92BF9282
:1006B000CF92DF92EF92FF920F931F93CF936B0134
:1006C0007C01742EAC019B010E948A09882399F059
:1006D0008CE091E0CF911F910F91FF90EF90DF9010
:1006E000CF90BF90AF909F908F907F906F905F90D2
:1006F0004F900C94AD0146015701E894B7F82FEFE5
:100700003FEF4FE75FE7C501B4010E948A098111FD
:100710000DC02FEF3FEF4FE75FE7C501B4010E9427
:10072000B90718161CF480E191E0D4CF2FEF3FEF0A
:100730004FE75FE4C701B6010E94180918161CF4C0
:1007400084E191E0C7CF2FEF3FEF4FE75FECC701A8
:10075000B6010E94B90787FDF3CF20E030E0A90180
:10076000C701B6010E94B90710E000E087FF0CC086
:1007700041E06DE282E791E00E944102F7FAF094D5
:10078000F7F8F09401E010E0C0E060E070E080E095
:100790009FE37C1641F020E030E040E251E40E940B
:1007A000BE07CF5FF6CFA70196010E944D074B0110
:1007B0005C010E9437082B013C014AE00E94BA010B
:1007C000080F191FCC23C9F1C301B2010E946608AA
:1007D0009B01AC01C501B4010E944C074B015C01B7
:1007E00041E06EE282E791E00E9441020F5F1F4FFD
:1007F000C15018F120E030E040E251E4C501B401FD
:100800000E941D092B013C010E9437084B01B12CAD
:10081000A12C4AE0C501B4010E94BA01080F191FBA
:10082000C501B4010E9466089B01AC01C301B2017D
:100830000E944C074B015C01DBCFC801CF911F9197
:100840000F91FF90EF90DF90CF90BF90AF909F906F
:100850008F907F906F905F904F9008951F920F92AE
:100860000FB60F9211242F933F938F939F93AF93C3
:10087000BF9380913B0190913C01A0913D01B091CB
:100880003E0130913A0123E0230F2D3758F50196B0
:10089000A11DB11D20933A0180933B0190933C012F
:1008A000A0933D01B0933E0180913F0190914001A2
:1008B000A0914101B09142010196A11DB11D80930B
:1008C0003F0190934001A0934101B0934201BF9139
:1008D000AF919F918F913F912F910F900FBE0F90ED
:1008E0001F90189526E8230F0296A11DB11DD2CFA7
:1008F0001F920F920FB60F9211242F933F934F9395
:100900005F936F937F938F939F93AF93BF93CF9397
:10091000DF93EF93FF9380913901C0913801D0E0CC
:1009200087FF24C0109285001092840080913901C5
:100930008F5F8093390180913901082E000C990B4B
:100940008C179D0724F4809139018C30C4F180917B
:10095000840090918500049680349C4908F47AC004
:100960008091840090918500049676C08091390131
:10097000082E000C990B8C179D07C4F6E0913901E5
:100980008E2FEE0F990BFC01EE0FFF1FE80FF91FE2
:10099000E55BFE4F808186FFC9CFE09139018E2F44
:1009A000EE0F990BFC01EE0FFF1FE80FF91FE55B3F
:1009B000FE4F808160E08F730E943801B7CF209195
:1009C000840030918500E09139018E2FEE0F990B54
:1009D000FC01EE0FFF1FE80FF91FE55BFE4F818161
:1009E0009281820F931F9093890080938800E091F9
:1009F00039018E2FEE0F990BFC01EE0FFF1FE80F50
:100A0000F91FE55BFE4F808186FF11C0E09139013F
:100A10008E2FEE0F990BFC01EE0FFF1FE80FF91F51
:100A2000E55BFE4F808161E08F730E943801FF918A
:100A3000EF91DF91CF91BF91AF919F918F917F9176
:100A40006F915F914F913F912F910F900FBE0F903B
:100A50001F90189580E49CE990938900809388000A
:100A60008FEF80933901E3CF789484B5826084BDA1
:100A700084B5816084BD85B5826085BD85B58160A2
:100A800085BD80916E00816080936E001092810020
:100A900080918100826080938100809181008160DB
:100AA000809381008091800081608093800080919C
:100AB000B10084608093B1008091B0008160809328
:100AC000B00080917A00846080937A0080917A00EF
:100AD000826080937A0080917A00816080937A00AE
:100AE00080917A00806880937A001092C10082E041
:100AF0000E949A0280916F018C3008F051C089E009
:100B00000E94870080916F01282F30E0F901EE0FDD
:100B1000FF1FE20FF31FE55BFE4F9081907C996011
:100B200090839DE390937001109271012CE0622FED
:100B30000E948F09829FB001112430E020E0AB01B8
:100B4000420F531FFA01EE0FFF1FE40FF51FE55B85
:100B5000FE4F908196FD16C02F5F3F4F2C30310520
:100B600071F781110FC01092800082E080938100A4
:100B70001092850010928400B19A80916F0082607B
:100B800080936F00E0916F018E2F90E0FC01EE0FDB
:100B9000FF1FE80FF91FE55BFE4F808180648083B3
:100BA0008DE00E9487008CE00E94870090E4B92EBF
:100BB0000BE31FE1C0E0D0E0B0927C0080917A00AE
:100BC000806480937A0080917A0086FDFCCF8091CA
:100BD000780060917900762F682F072E000C880B23
:100BE000990B0E9468082EEF33E44AEF5EE30E94FF
:100BF0001D096B017C01C0924701D0924801E0922F
:100C00004901F0924A012091430130914401409101
:100C10004501509146010E94B907882369F181E09E
:100C20000E949402C8010197F1F7C701B6010E9422
:100C3000300880E0693171050CF459C00E943C0312
:100C400042E0C701B6010E94500388E191E00E9492
:100C5000AD0181E00E943C038BE191E00E94AD0177
:100C600084EB90E00E94A60060E08DE00E943801D5
:100C700061E08CE00E9438010E9484012B013C015C
:100C800088EEC82E83E0D82EE12CF12C0E9484013E
:100C90006419750986099709683E734081059105B5
:100CA000A8F321E0C21AD108E108F10888EE480E45
:100CB00083E0581E611C711CC114D104E104F104CD
:100CC00029F78091470190914801A0914901B09185
:100CD0004A018093430190934401A0934501B0934E
:100CE0004601209709F468CF0E94000065CF683163
:100CF0007105E9F00E943C0342E0C701B6010E9481
:100D0000500388E191E00E94AD0181E00E943C0324
:100D100088E291E00E94AD0187E690E00E94A60083
:100D200060E08CE00E94380161E08DE0A3CF0E947A
:100D30003C0342E0C701B6010E94500388E191E004
:100D40000E94AD0199CF809138018C30F0F591E08F
:100D5000980F9093380180936F0190E0FC01EE0FA3
:100D6000FF1FE80FF91FE55BFE4F88EB9BE09283C6
:100D70008183109275011092740184E091E0909348
:100D800073018093720182E0809376018FEF8093EC
:100D9000770183E08093780184E08093790185E096
:100DA00080937A0186E080937B0187E080937C01C9
:100DB00010927D0110927E0110927F0110928001AD
:100DC0001092810181E00C949A028FEF80936F0161
:100DD000D0CF052E97FB1EF400940E94000757FD0C
:100DE00007D00E941B0707FC03D04EF40C940007A9
:100DF00050954095309521953F4F4F4F5F4F089547
:100E000090958095709561957F4F8F4F9F4F089576
:100E10000E943D07A59F900DB49F900DA49F800D4B
:100E2000911D11240895B7FF0C9408070E9408072C
:100E3000821B930B0895A1E21A2EAA1BBB1BFD0176
:100E40000DC0AA1FBB1FEE1FFF1FA217B307E407A9
:100E5000F50720F0A21BB30BE40BF50B661F771F01
:100E6000881F991F1A9469F76095709580959095E1
:100E70009B01AC01BD01CF010895A29FB001B39FBA
:100E8000C001A39F700D811D1124911DB29F700D93
:100E9000811D1124911D08955058BB27AA270E9437
:100EA00064070C94DE080E94D00838F00E94D7082E
:100EB00020F039F49F3F19F426F40C94CD080EF479
:100EC000E095E7FB0C94C708E92F0E94EF0858F360
:100ED000BA17620773078407950720F079F4A6F51F
:100EE0000C9411090EF4E0950B2EBA2FA02D0B01D6
:100EF000B90190010C01CA01A0011124FF27591B5F
:100F000099F0593F50F4503E68F11A16F040A22F64
:100F1000232F342F4427585FF3CF469537952795D5
:100F2000A795F0405395C9F77EF41F16BA0B620BD4
:100F3000730B840BBAF09150A1F0FF0FBB1F661F1B
:100F4000771F881FC2F70EC0BA0F621F731F841F5E
:100F500048F4879577956795B795F7959E3F08F084
:100F6000B0CF9395880F08F09927EE0F9795879546
:100F700008950E94A30808F481E008950E94D20712
:100F80000C94DE080E94D70858F00E94D00840F068
:100F900029F45F3F29F00C94C70851110C941209F1
:100FA0000C94CD080E94EF0868F39923B1F3552300
:100FB00091F3951B550BBB27AA276217730784076C
:100FC00038F09F5F5F4F220F331F441FAA1FA9F302
:100FD00035D00E2E3AF0E0E832D091505040E695F0
:100FE000001CCAF72BD0FE2F29D0660F771F881F51
:100FF000BB1F261737074807AB07B0E809F0BB0B44
:10100000802DBF01FF2793585F4F3AF09E3F510557
:1010100078F00C94C7080C9412095F3FE4F3983EF3
:10102000D4F3869577956795B795F7959F5FC9F740
:10103000880F911D9695879597F90895E1E0660FC1
:10104000771F881FBB1F621773078407BA0720F03A
:10105000621B730B840BBA0BEE1F88F7E0950895A3
:101060000E9437086894B1110C94120908950E94E7
:10107000F70888F09F5798F0B92F9927B751B0F02B
:10108000E1F0660F771F881F991F1AF0BA95C9F70C
:1010900014C0B13091F00E941109B1E008950C9490
:1010A0001109672F782F8827B85F39F0B93FCCF343
:1010B000869577956795B395D9F73EF49095809589
:1010C000709561957F4F8F4F9F4F0895E89409C0A9
:1010D00097FB3EF490958095709561957F4F8F4F6B
:1010E0009F4F9923A9F0F92F96E9BB279395F69581
:1010F000879577956795B795F111F8CFFAF4BB0FFF
:1011000011F460FF1BC06F5F7F4F8F4F9F4F16C062
:10111000882311F096E911C0772321F09EE8872FEC
:10112000762F05C0662371F096E8862F70E060E0A8
:101130002AF09A95660F771F881FDAF7880F969521
:10114000879597F90895990F0008550FAA0BE0E8C5
:10115000FEEF16161706E807F907C0F01216130679
:10116000E407F50798F0621B730B840B950B39F4B9
:101170000A2661F0232B242B252B21F408950A261F
:1011800009F4A140A6958FEF811D811D089597F95F
:101190009F6780E870E060E008959FEF80EC08951D
:1011A00000240A9416161706180609060895002446
:1011B0000A9412161306140605060895092E0394C0
:1011C000000C11F4882352F0BB0F40F4BF2B11F434
:1011D00060FF04C06F5F7F4F8F4F9F4F089557FD93
:1011E0009058440F551F59F05F3F71F04795880F95
:1011F00097FB991F61F09F3F79F08795089512162C
:1012000013061406551FF2CF4695F1DF08C01616D7
:1012100017061806991FF1CF869571056105089488
:101220000895E894BB2766277727CB0197F908959F
:101230000E94A30808F48FEF08950E9430090C94CF
:10124000DE080E94D00838F00E94D70820F09523CD
:1012500011F00C94C7080C94CD0811240C941209B9
:101260000E94EF0870F3959FC1F3950F50E0551F52
:10127000629FF001729FBB27F00DB11D639FAA27EB
:10128000F00DB11DAA1F649F6627B00DA11D661F3A
:10129000829F2227B00DA11D621F739FB00DA11D5B
:1012A000621F839FA00D611D221F749F3327A00D15
:1012B000611D231F849F600D211D822F762F6A2FB1
:1012C00011249F5750409AF0F1F088234AF0EE0F16
:1012D000FF1FBB1F661F771F881F91505040A9F743
:1012E0009E3F510580F00C94C7080C9412095F3F93
:1012F000E4F3983ED4F3869577956795B795F7957F
:10130000E7959F5FC1F7FE2B880F911D96958795F6
:1013100097F908950E94A308880B990B0895991BCB
:1013200079E004C0991F961708F0961B881F7A95DC
:10133000C9F780950895EE0FFF1F0590F491E02DF9
:101340000994F894FFCF000000004A030B01AA01A2
:10135000A9016E616E00696E66006F7666002043BB
:101360000054656D70206973206869676800546572
:0E1370006D70206973206E6F726D616C0000ED
:107E0000112484B714BE81FFF0D085E080938100F7
:107E100082E08093C00088E18093C10086E0809377
:107E2000C20080E18093C4008EE0C9D0259A86E02C
:107E300020E33CEF91E0309385002093840096BBD3
:107E4000B09BFECF1D9AA8958150A9F7CC24DD24C4
:107E500088248394B5E0AB2EA1E19A2EF3E0BF2EE7
:107E6000A2D0813461F49FD0082FAFD0023811F036
:107E7000013811F484E001C083E08DD089C08234E0
:107E800011F484E103C0853419F485E0A6D080C0E4
:107E9000853579F488D0E82EFF2485D0082F10E0AE
:107EA000102F00270E291F29000F111F8ED06801E7
:107EB0006FC0863521F484E090D080E0DECF843638
:107EC00009F040C070D06FD0082F6DD080E0C81688
:107ED00080E7D80618F4F601B7BEE895C0E0D1E017
:107EE00062D089930C17E1F7F0E0CF16F0E7DF06D8
:107EF00018F0F601B7BEE89568D007B600FCFDCFD4
:107F0000A601A0E0B1E02C9130E011968C91119780
:107F100090E0982F8827822B932B1296FA010C0160
:107F200087BEE89511244E5F5F4FF1E0A038BF0790
:107F300051F7F601A7BEE89507B600FCFDCF97BE46
:107F4000E89526C08437B1F42ED02DD0F82E2BD052
:107F50003CD0F601EF2C8F010F5F1F4F84911BD097
:107F6000EA94F801C1F70894C11CD11CFA94CF0C13
:107F7000D11C0EC0853739F428D08EE10CD085E9AC
:107F80000AD08FE07ACF813511F488E018D01DD067
:107F900080E101D065CF982F8091C00085FFFCCF94
:107FA0009093C60008958091C00087FFFCCF809118
:107FB000C00084FD01C0A8958091C6000895E0E648
:107FC000F0E098E1908380830895EDDF803219F02E
:107FD00088E0F5DFFFCF84E1DECF1F93182FE3DFCA
:107FE0001150E9F7F2DF1F91089580E0E8DFEE27F6
:047FF000FF270994CA
:027FFE00040479
:00000001FF
